:100000000C942A000C943F000C943F000C943F0089
:100010000C943F000C943F000C943F000C943F0064
:100020000C943F000C943F000C943F000C943F0054
:100030000C943F000C943F000C943F000C943F0044
:100040000C943F000C943F000C943F000C943F0034
:100050000C943F0011241FBECFE5D8E0DEBFCDBF1A
:1000600010E0A0E6B0E0E2EFF8E002C005900D92EB
:10007000A43AB107D9F70E94DF030C9477040C94DB
:1000800000003F983E9A389A359A309A319A329ABF
:1000900033983D98379A0895369A349BFECF64B1D1
:1000A00075B144EF51E0649F9001659F300D749FDE
:1000B000300D1124232F26952695FC0120831182D3
:1000C0000895442379F1413009F05FC0813079F01F
:1000D00028F08230A9F08330E1F008952AB381E05E
:1000E00090E001C0880F6A95EAF7822B2CC027B3F5
:1000F00081E090E001C0880F6A95EAF7822B2EC05C
:1001000024B381E090E001C0880F6A95EAF7822B62
:1001100030C021B381E090E001C0880F6A95EAF712
:10012000822B32C0813089F028F08230C9F08330D0
:1001300011F108952AB381E090E001C0880F6A951B
:10014000EAF7809582238ABB089527B381E090E087
:1001500001C0880F6A95EAF78095822387BB0895CE
:1001600024B381E090E001C0880F6A95EAF780959A
:10017000822384BB089521B381E090E001C0880F01
:100180006A95EAF78095822381BB0895442379F12B
:10019000413009F05FC0813079F028F08230A9F059
:1001A0008330E1F008952BB381E090E001C0880F27
:1001B0006A95EAF7822B2CC028B381E090E001C059
:1001C000880F6A95EAF7822B2EC025B381E090E074
:1001D00001C0880F6A95EAF7822B30C022B381E014
:1001E00090E001C0880F6A95EAF7822B32C0813017
:1001F00089F028F08230C9F0833011F108952BB3D3
:1002000081E090E001C0880F6A95EAF7809582232B
:100210008BBB089528B381E090E001C0880F6A95F8
:10022000EAF78095822388BB089525B381E090E0AA
:1002300001C0880F6A95EAF78095822385BB0895EF
:1002400022B381E090E001C0880F6A95EAF78095BB
:10025000822382BB0895FA01813041F028F0823078
:1002600039F0833039F0089589B305C086B303C0EF
:1002700083B301C080B390E002C0959587956A95DD
:10028000E2F7817080830895813081F028F0823018
:10029000B9F08330F9F008952BB381E090E001C00C
:1002A000880F6A95EAF7822B8BBB089528B381E00B
:1002B00090E001C0880F6A95EAF7822B88BB089509
:1002C00025B381E090E001C0880F6A95EAF7822BA0
:1002D00085BB089522B381E090E001C0880F6A9544
:1002E000EAF7822B82BB089541E060E083E00E9440
:1002F000610041E061E083E00E94610041E062E072
:1003000083E00E94610041E063E083E00E946100BD
:1003100040E064E083E00E94610040E065E083E04B
:100320000E94610040E066E083E00E94610040E0DE
:1003300067E083E00E94610064E083E00E94440182
:1003400065E083E00E94440166E083E00E9444018E
:1003500067E083E00E94440141E060E083E00E94A6
:10036000C60041E061E083E00E94C60041E062E037
:1003700083E00E94C60041E063E083E00C94C60085
:10038000BF92CF92DF92EF92FF920F931F93CF9382
:10039000DF931F92CDB7DEB7198280E6E82E80E0AA
:1003A000F82EB12C10E040E0612F83E00E94C600DF
:1003B000670104E0AE014F5F5F4F602F83E00E9452
:1003C0002B018981811113C0F601B08089818111CF
:1003D00008C0AE014F5F5F4F602F83E00E942B018A
:1003E000F5CF8FE39CE90197F1F700C000000F5FA4
:1003F00094E0C90ED11C0830E9F641E0612F83E09A
:100400000E94C6001F5FEFEFEE1AFE0A143059F685
:100410008B2D0F90DF91CF911F910F91FF90EF9057
:10042000DF90CF90BF900895CF93C82F40E061E058
:1004300081E00E94C60040E062E081E00E94C600C8
:1004400040E063E081E00E94C6008BB39C2F907F68
:100450008F70892B8BBB41E063E081E00E94C60076
:100460008FE99FE00197F1F700C0000040E063E0F2
:1004700081E00E94C6002BB330E1C39FC00111246C
:10048000922F9F70892B8BBB41E063E081E00E943B
:10049000C6008FE99FE00197F1F700C0000040E03F
:1004A00063E081E00E94C6008FE19EE40197F1F7CE
:1004B00000C00000CF91089541E061E081E00E941A
:1004C000610041E062E081E00E94610041E063E0A0
:1004D00081E00E94610041E064E080E00E946100F0
:1004E00041E065E080E00E94610041E066E080E07C
:1004F0000E94610041E067E080E00E9461002FEF10
:1005000081EE94E0215080409040E1F700C000006F
:1005100083E30E94140282E30E94140288E20E9494
:1005200014028CE00E94140281E00E94140286E012
:100530000E94140282E00C941402CF93C82F41E071
:1005400061E081E00E94C60040E062E081E00E943C
:10055000C60040E063E081E00E94C6008C2F807FEF
:100560008BBB41E063E081E00E94C6008FE99FE021
:100570000197F1F700C0000040E063E081E00E94D5
:10058000C600C295C07FCBBB41E063E081E00E9422
:10059000C6008FE99FE00197F1F700C0000040E03E
:1005A00063E081E00E94C6008FE19EE40197F1F7CD
:1005B00000C00000CF9108950F931F93CF938C013B
:1005C000C0E0F801EC0FF11D8081882321F00E942A
:1005D0009D02CF5FF6CFCF911F910F9108954F925B
:1005E0005F926F927F928F929F92AF92BF92CF92C3
:1005F000DF92EF92FF924B015C0197FF0BC08DE2FF
:100600000E949D02B094A09490948094811C911CAF
:10061000A11CB11C61E070E080E090E03AE0432E64
:10062000512C612C712C81149104A104B104A9F006
:10063000AAE0B0E09B01AC010E943B046B017C018D
:10064000C501B401A30192010E941C046C0D7D1D23
:100650008E1D9F1D49015A01E6CF2AE0C22ED12CE2
:10066000E12CF12C62307105810591056CF0A70138
:1006700096010E941C0449015A0180E3860F0E94E2
:100680009D02B401C501EECFFF90EF90DF90CF90B7
:10069000BF90AF909F908F907F906F905F904F90A2
:1006A000089581E00C94140288E00C941402DF9207
:1006B000EF92FF920F931F93CF93DF93CDB7DEB7E7
:1006C000A5970FB6F894DEBF0FBECDBF8DE0E0E773
:1006D000F0E0DE011E9601900D928A95E1F78DE023
:1006E000EDE7F0E0DE01119601900D928A95E1F7B9
:1006F0008BE0EAE8F0E0DE015B9601900D928A95CE
:10070000E1F710E00E94C001D82E8823D9F30E949F
:1007100051038AE20E949D020E94C001E82E8823B4
:10072000D9F38AE20E949D020E94C001F82E88231C
:10073000D9F38AE20E949D020E94C001082F8823FB
:10074000D9F38AE20E949D0224E3D2121AC083E305
:10075000E81217C092E3F91214C0013391F4CE01EC
:100760000E960E94DC02A5960FB6F894DEBF0FBE6F
:10077000CDBFDF91CF911F910F91FF90EF90DF9050
:1007800008950E945103CE0101960E94DC021330AD
:1007900079F40E945103CE014B960E94DC022FEFA8
:1007A00083E294EF215080409040E1F700C00000C8
:1007B0001F5F143009F0A6CF0E945403FFCFCF93E0
:1007C000DF93CDB7DEB761970FB6F894DEBF0FBEEB
:1007D000CDBF198A188A8FE0E5E9F0E0DE011196B5
:1007E00001900D928A95E1F70E945C020E947401CB
:1007F0000E9418040E945103CE0101960E94DC025F
:100800000E945703CE0140960E941A040E94510391
:100810006889798980E090E00E94EF022FEF89E6F5
:1008200098E1215080409040E1F700C00000EACFFD
:100830000C9441000C944C00052E97FB1EF4009480
:100840000E94330457FD07D00E94460407FC03D0E2
:100850004EF40C94330450954095309521953F4FBC
:100860004F4F5F4F089590958095709561957F4F9C
:100870008F4F9F4F08950E946804A59F900DB49FCD
:10088000900DA49F800D911D11240895A1E21A2EB0
:10089000AA1BBB1BFD010DC0AA1FBB1FEE1FFF1F24
:1008A000A217B307E407F50720F0A21BB30BE40B74
:1008B000F50B661F771F881F991F1A9469F76095BB
:1008C0007095809590959B01AC01BD01CF01089575
:1008D000A29FB001B39FC001A39F700D811D112481
:1008E000911DB29F700D811D1124911D0895F894E2
:0208F000FFCF38
:1008F2003738392F3435362A3132332D63303D2B98
:100902004F4B20535953205354415254004E4F20C1
:1009120054525920414741494E00535953204C4F9C
:10092200434B454400454E54455220504153535782
:040932004F524400DC
:00000001FF
